:02000004701872
:1004000000002024DD10187039111870391118708F
:100410003911187039111870391118703911187094
:10042000000000000000000000000000B110187083
:100430003911187000000000411018708D0F1870ED
:100440003911187000000000391118703911187036
:100450003911187039111870391118703911187054
:100460003911187000000000391118703911187016
:100470003911187039111870391118700000000006
:1004800039111870000000003911187039111870F6
:100490003911187039111870391118703911187014
:1004A0003911187039111870391118703911187004
:1004B00039111870391118703911187039111870F4
:1004C00039111870391118703911187039111870E4
:1004D00039111870391118703911187039111870D4
:1004E0003911187000000000391118703911187096
:1004F00039111870391118703911187039111870B4
:100500003911187000000000000000000000000019
:100510003911187039111870391118703911187093
:100520003911187039111870391118703911187083
:100530003911187039111870391118703911187073
:100540003911187039111870391118703911187063
:0C07400000000000391118703911187009
:100750000348044B834202D0034B03B11847704750
:100760000C0010240C00102400000000064B074968
:10077000C91A891048BF0131491003D0044B0BB18D
:1007800001481847704700BF0C0010240C001024CB
:100790000000000010B5064C237843B9FFF7D8FFDE
:1007A000044B13B10448AFF300800123237010BD44
:1007B0000C001024000000003C11187008B5044B18
:1007C0001BB104490448AFF30080BDE80840CDE701
:1007D00000000000100010243C11187070B50D4E80
:1007E0000D4D761BB61006D00024013455F8043B9D
:1007F0009847A642F9D1094E00F0A0FC084D761B9F
:10080000B61006D00024013455F8043B9847A642A0
:10081000F9D170BD601118706011187064111870F2
:1008200060111870704700BF38B50F4B1B780BB9BB
:10083000012038BD4FF47A72B2FBF3F30B49054641
:100840000868B0FBF3F000F08FF804460028EFD101
:100850000F2DEDD8024629464FF0FF3000F046F844
:10086000034B20461D6038BD0000102408001024F2
:1008700004001024032010B500F026F800F058FA08
:100880001020FFF7D1FF10B10124204610BD04460F
:10089000FFF7C8FF204610BD014B1868704700BF26
:1008A0002800102438B50446FFF7F6FF631C054600
:1008B00002D0044B1B781C44FFF7EEFF431BA342FE
:1008C000FAD338BD000010244FF6FF0C064903028E
:1008D000CA6803F4E06302EA0C02134343F0BF6307
:1008E00043F40033CB60704700ED00E01C4B00B5D3
:1008F000DB68C3F30223C3F1070EBEF1040F03F15B
:10090000040C28BF4FF0040EBCF1060F1BD94FF0AA
:10091000FF3C033B0CFA03FC22EA0C024FF0FF3CC5
:100920000CFA0EFC21EA0C019940002841EA020170
:100930000CDB090100F16040C9B200F5614080F8AC
:1009400000135DF804FB00221346E7E7054B00F0B7
:100950000F000901C9B2034419765DF804FB00BF1A
:1009600000ED00E0FCEC00E00138B0F1807F10D237
:100970004FF0E0234FF0F00C0022072110B4064C9A
:10098000586184F823C010469A615DF8044B1961E0
:1009900070470120704700BF00ED00E02DE9F04FE7
:1009A0000C6883B0002C00F0AD8000221346DFF805
:1009B00090B201944FF0010C019C0CFA03FC1CEA6C
:1009C000040A00F098804F6807F003056E1E012EA0
:1009D00040F29B80032D40F0DA808E689540012E16
:1009E00007D0D0F80CC096402CEA050C46EA0C065D
:1009F000C660EE43D0F800C017F4403F0CEA06068C
:100A000045EA0605056076D00F2623F0030505F1BB
:100A10008C45844C05F5143503F0030ED5F860C001
:100A20004FEACE0E06FA0EF6A0422CEA060637D0A2
:100A300004F58064A04200F0B5807B4CA04200F039
:100A4000B8807A4CA04200F0A680794CA04200F019
:100A5000BE80784CA04200F0C180774CA04200F0EC
:100A6000AF80764CA04200F0C780DFF8D8C1604567
:100A700000F0C980DFF8D0C1604500F0CB80DFF81E
:100A8000CCC1604500F0B180DFF8C4C160450CBF47
:100A90004FF00B0C4FF0100C0CFA0EFE46EA0E064F
:100AA0006FEA0A0C2E66DBF88050FE0354BF0CEA96
:100AB00005054AEA0505CBF88050DBF88460BC03E5
:100AC00054BF0CEA06064AEA0606CBF88460DBF857
:100AD0000060FD0254BF0CEA06064AEA0606CBF89F
:100AE0000060DBF80450BC0254BF0CEA05054AEA7A
:100AF0000505CBF80450019C0133DC4002F10202F1
:100B00007FF458AF03B0BDE8F08F0326D0F808801B
:100B1000964028EA0608F643CC68C7F3001E04FA9C
:100B200002F949EA0809C0F80890D0F804800EFAE2
:100B300003FE28EA0C0C4EEA0C0CC0F804C0D0F8F6
:100B40000CE08C680EEA060E04FA02FC4CEA0E0C6D
:100B5000022DC0F80CC005FA02F57FF44BAF4FF040
:100B60000F094FEAD30C0C6900EB8C0C03F0070E55
:100B7000DCF820804FEA8E0E04FA0EF409FA0EFE1D
:100B800028EA0E0844EA080ECCF820E032E70326F3
:100B90009640F643D3E74FF0030C0CFA0EFE46EAFC
:100BA0000E067DE74FF0010C0CFA0EFE46EA0E062B
:100BB00076E74FF0020C0CFA0EFE46EA0E066FE7DF
:100BC0004FF0060C0CFA0EFE46EA0E0668E74FF0F0
:100BD000040C0CFA0EFE46EA0E0661E74FF0050C17
:100BE0000CFA0EFE46EA0E065AE74FF00A0C0CFA13
:100BF0000EFE46EA0E0653E74FF0070C0CFA0EFE07
:100C000046EA0E064CE74FF0080C0CFA0EFE46EAD8
:100C10000E0645E74FF0090C0CFA0EFE46EA0E06EA
:100C20003EE700BF0000024600080246000C0246F4
:100C3000001002460014024600180246001C02463C
:100C4000005002460034024600380246003C02468C
:100C500000400246436901EA030221EA030141EA36
:100C600002418161704700BF01244FF0020980B545
:100C70004FF004088EB0FFF7FDFD4FF0080E10276F
:100C8000202540264FF0800C264B0022C3F85C4AFA
:100C9000D3F85CA22448CDF820A0DDF820A0C3F84A
:100CA0005C9AD3F85C9209A9CDF81C90DDF81C90F1
:100CB000C3F85C8AD3F85C82CDF81880DDF8188020
:100CC000C3F85CEAD3F85CE2CDF814E0DDF814E098
:100CD000C3F85C7AD3F85C720497049FC3F85C5A3B
:100CE000D3F85C720397039FC3F85C6AD3F85C6225
:100CF0000296029EC3F85CCAD3F85C320193019B52
:100D00000B920A94CDE90C220995FFF747FE064C99
:100D100020462021FFF79EFF4FF4FA70FFF7C2FD37
:100D2000F6E700BF0080024600000246704700BFA1
:100D3000014B024A1A607047080010240090D0034B
:100D4000002238B51F4B204C1A6023681B6B1A68B1
:100D5000B2F1A53F03D15A68B2F1A53F29D020686E
:100D60002168343100F0B6F9184D19492B6803EBAE
:100D7000830292008A5898003AB9013B03EB830240
:100D800051F822209800002AF7D0184401EB800C7B
:100D90006146DCF80420083152688A42CCF804200D
:100DA00004BFDCF80C20CCF80420D26822602B6051
:100DB00038BD9A68B2F1A53FD1D1DB68B3F1A53F48
:100DC000CDD1D1E7900110242C0010247C011024F7
:100DD000380010242DE9F04F544B83B01E680136C3
:100DE0001E60002E7DD0524B0193019B1B689E42DA
:100DF00061D3504F3B681868002800F092800020B3
:100E0000B246864681464C4DDFF83CB1DFF83C8166
:100E100044E05969D3E90226966072604A68A242AA
:100E20000A6808BF4E60013AC3F814E00A60996A84
:100E300069B1D3E90762B2601A6A56604E688642A9
:100E400008BF4A600A68C3F828E0013A0A60DA6A13
:100E5000D8F8001002EB820605EB860C8A42DCF81B
:100E6000041088BFC8F8002088689960D86055F8D9
:100E7000260001300090886844608C60C3F814C07C
:100E8000009B45F82630DBF800103B68C96A1B68F8
:100E90008A4288BF4FF00109002B35D03B68DB68E0
:100EA000DB685A681C1D924503F11800B1D2019B02
:100EB00048461A6003E000201F4DDFF88CB0DBF8D5
:100EC00000301E49DB6A03EB83039B00EA580B6882
:100ED000022A28BF0120002B18BF012003B0BDE863
:100EE000F08F144B164A1868116819601549106084
:100EF0000A6801320A601A6812685AB94FF0FF3363
:100F00000B4A0192136070E748464FF0FF33019A95
:100F10001360D4E71B68064ADB6801921B68136004
:100F200063E7054DDFF820B0EFE700BF8C01102428
:100F30008001102430001024380010249001102467
:100F400034001024840110242C0010247C0110246F
:100F5000054B1B680BB9FFF73DBF044A002013681F
:100F600001331360704700BF7801102488011024FA
:100F7000044B1B681BB10122034B1A607047FFF73B
:100F8000DFBE00BF780110249001102410B500F0DE
:100F900041F80446FFF7DCFF28B14FF0E0234FF0A3
:100FA0008052C3F8042D2046BDE8104000F03EB842
:100FB000836913F8023C662B00D070474FF0E023A2
:100FC000D3F8882D42F47002C3F8882DD3F8342F5B
:100FD00042F04042C3F8342F00F002B80000000095
:100FE0000B4A1168086806C881F30B88022181F357
:100FF0001488203080F30988BFF36F8F4FF0000012
:1010000080F31188104700BFAFF30080AFF300807A
:101010002C001024EFF311804FF0500181F3118860
:10102000BFF34F8FBFF36F8F704700BF80F31188FE
:10103000BFF34F8FBFF36F8F704700BF00000000FA
:10104000EFF309801EF0100F08BF20ED108AEFF3B8
:101050000B82734620E9FC0F114A116808604FF0BB
:10106000500080F31188BFF34F8FBFF36F8FFFF7EE
:101070007FFF4FF0000080F31188094A116808686B
:10108000B0E8FC0F13F0100F08BFB0EC108A82F329
:101090000B8880F309881847AFF30080AFF3008016
:1010A0002C001024000000000000000000000000E0
:1010B0001EF0040F0CBFEFF30880EFF30980044922
:1010C000084700BFAFF30080AFF30080AFF30080AC
:1010D000B10F187008B5FFF79DFFFEE70F4880F3CA
:1010E0000A880F488546FFF721FE0E480E490F4A31
:1010F000002302E0D458C4500433C4188C42F9D3FE
:101100000B4A0C4C002301E013600432A242FBD3D3
:10111000FFF764FBFFF7A8FDFEE7000000C01F24F7
:1011200000002024000010240C0010246811187006
:101130000C00102494011024FEE70000F8B500BF55
:10114000F8BC08BC9E467047F8B500BFF8BC08BCA8
:041150009E46704700
:04116000BD0718703F
:041164009507187063
:0C11680001000000100000000090D00307
:04000005701810DD82
:00000001FF
